{
  "_format": "hh-sol-artifact-1",
  "contractName": "Domains",
  "sourceName": "contracts/Domains.sol",
  "abi": [
    {
      "inputs": [
        {
          "internalType": "string",
          "name": "_tld",
          "type": "string"
        }
      ],
      "stateMutability": "payable",
      "type": "constructor"
    },
    {
      "inputs": [],
      "name": "AlreadyRegistered",
      "type": "error"
    },
    {
      "inputs": [
        {
          "internalType": "string",
          "name": "name",
          "type": "string"
        }
      ],
      "name": "InvalidName",
      "type": "error"
    },
    {
      "inputs": [],
      "name": "Unauthorized",
      "type": "error"
    },
    {
      "anonymous": false,
      "inputs": [
        {
          "indexed": true,
          "internalType": "address",
          "name": "owner",
          "type": "address"
        },
        {
          "indexed": true,
          "internalType": "address",
          "name": "approved",
          "type": "address"
        },
        {
          "indexed": true,
          "internalType": "uint256",
          "name": "tokenId",
          "type": "uint256"
        }
      ],
      "name": "Approval",
      "type": "event"
    },
    {
      "anonymous": false,
      "inputs": [
        {
          "indexed": true,
          "internalType": "address",
          "name": "owner",
          "type": "address"
        },
        {
          "indexed": true,
          "internalType": "address",
          "name": "operator",
          "type": "address"
        },
        {
          "indexed": false,
          "internalType": "bool",
          "name": "approved",
          "type": "bool"
        }
      ],
      "name": "ApprovalForAll",
      "type": "event"
    },
    {
      "anonymous": false,
      "inputs": [
        {
          "indexed": true,
          "internalType": "address",
          "name": "from",
          "type": "address"
        },
        {
          "indexed": true,
          "internalType": "address",
          "name": "to",
          "type": "address"
        },
        {
          "indexed": true,
          "internalType": "uint256",
          "name": "tokenId",
          "type": "uint256"
        }
      ],
      "name": "Transfer",
      "type": "event"
    },
    {
      "inputs": [
        {
          "internalType": "address",
          "name": "to",
          "type": "address"
        },
        {
          "internalType": "uint256",
          "name": "tokenId",
          "type": "uint256"
        }
      ],
      "name": "approve",
      "outputs": [],
      "stateMutability": "nonpayable",
      "type": "function"
    },
    {
      "inputs": [
        {
          "internalType": "address",
          "name": "owner",
          "type": "address"
        }
      ],
      "name": "balanceOf",
      "outputs": [
        {
          "internalType": "uint256",
          "name": "",
          "type": "uint256"
        }
      ],
      "stateMutability": "view",
      "type": "function"
    },
    {
      "inputs": [
        {
          "internalType": "string",
          "name": "",
          "type": "string"
        }
      ],
      "name": "domains",
      "outputs": [
        {
          "internalType": "address",
          "name": "",
          "type": "address"
        }
      ],
      "stateMutability": "view",
      "type": "function"
    },
    {
      "inputs": [
        {
          "internalType": "string",
          "name": "name",
          "type": "string"
        }
      ],
      "name": "getAddress",
      "outputs": [
        {
          "internalType": "address",
          "name": "",
          "type": "address"
        }
      ],
      "stateMutability": "view",
      "type": "function"
    },
    {
      "inputs": [],
      "name": "getAllNames",
      "outputs": [
        {
          "internalType": "string[]",
          "name": "",
          "type": "string[]"
        }
      ],
      "stateMutability": "view",
      "type": "function"
    },
    {
      "inputs": [
        {
          "internalType": "uint256",
          "name": "tokenId",
          "type": "uint256"
        }
      ],
      "name": "getApproved",
      "outputs": [
        {
          "internalType": "address",
          "name": "",
          "type": "address"
        }
      ],
      "stateMutability": "view",
      "type": "function"
    },
    {
      "inputs": [
        {
          "internalType": "string",
          "name": "name",
          "type": "string"
        }
      ],
      "name": "getRecord",
      "outputs": [
        {
          "internalType": "string",
          "name": "",
          "type": "string"
        }
      ],
      "stateMutability": "view",
      "type": "function"
    },
    {
      "inputs": [
        {
          "internalType": "address",
          "name": "owner",
          "type": "address"
        },
        {
          "internalType": "address",
          "name": "operator",
          "type": "address"
        }
      ],
      "name": "isApprovedForAll",
      "outputs": [
        {
          "internalType": "bool",
          "name": "",
          "type": "bool"
        }
      ],
      "stateMutability": "view",
      "type": "function"
    },
    {
      "inputs": [],
      "name": "isOwner",
      "outputs": [
        {
          "internalType": "bool",
          "name": "",
          "type": "bool"
        }
      ],
      "stateMutability": "view",
      "type": "function"
    },
    {
      "inputs": [],
      "name": "name",
      "outputs": [
        {
          "internalType": "string",
          "name": "",
          "type": "string"
        }
      ],
      "stateMutability": "view",
      "type": "function"
    },
    {
      "inputs": [
        {
          "internalType": "uint256",
          "name": "",
          "type": "uint256"
        }
      ],
      "name": "names",
      "outputs": [
        {
          "internalType": "string",
          "name": "",
          "type": "string"
        }
      ],
      "stateMutability": "view",
      "type": "function"
    },
    {
      "inputs": [],
      "name": "owner",
      "outputs": [
        {
          "internalType": "address payable",
          "name": "",
          "type": "address"
        }
      ],
      "stateMutability": "view",
      "type": "function"
    },
    {
      "inputs": [
        {
          "internalType": "uint256",
          "name": "tokenId",
          "type": "uint256"
        }
      ],
      "name": "ownerOf",
      "outputs": [
        {
          "internalType": "address",
          "name": "",
          "type": "address"
        }
      ],
      "stateMutability": "view",
      "type": "function"
    },
    {
      "inputs": [
        {
          "internalType": "string",
          "name": "name",
          "type": "string"
        }
      ],
      "name": "price",
      "outputs": [
        {
          "internalType": "uint256",
          "name": "",
          "type": "uint256"
        }
      ],
      "stateMutability": "pure",
      "type": "function"
    },
    {
      "inputs": [
        {
          "internalType": "string",
          "name": "",
          "type": "string"
        }
      ],
      "name": "records",
      "outputs": [
        {
          "internalType": "string",
          "name": "",
          "type": "string"
        }
      ],
      "stateMutability": "view",
      "type": "function"
    },
    {
      "inputs": [
        {
          "internalType": "string",
          "name": "name",
          "type": "string"
        }
      ],
      "name": "register",
      "outputs": [],
      "stateMutability": "payable",
      "type": "function"
    },
    {
      "inputs": [
        {
          "internalType": "address",
          "name": "from",
          "type": "address"
        },
        {
          "internalType": "address",
          "name": "to",
          "type": "address"
        },
        {
          "internalType": "uint256",
          "name": "tokenId",
          "type": "uint256"
        }
      ],
      "name": "safeTransferFrom",
      "outputs": [],
      "stateMutability": "nonpayable",
      "type": "function"
    },
    {
      "inputs": [
        {
          "internalType": "address",
          "name": "from",
          "type": "address"
        },
        {
          "internalType": "address",
          "name": "to",
          "type": "address"
        },
        {
          "internalType": "uint256",
          "name": "tokenId",
          "type": "uint256"
        },
        {
          "internalType": "bytes",
          "name": "data",
          "type": "bytes"
        }
      ],
      "name": "safeTransferFrom",
      "outputs": [],
      "stateMutability": "nonpayable",
      "type": "function"
    },
    {
      "inputs": [
        {
          "internalType": "address",
          "name": "operator",
          "type": "address"
        },
        {
          "internalType": "bool",
          "name": "approved",
          "type": "bool"
        }
      ],
      "name": "setApprovalForAll",
      "outputs": [],
      "stateMutability": "nonpayable",
      "type": "function"
    },
    {
      "inputs": [
        {
          "internalType": "string",
          "name": "name",
          "type": "string"
        },
        {
          "internalType": "string",
          "name": "record",
          "type": "string"
        }
      ],
      "name": "setRecord",
      "outputs": [],
      "stateMutability": "nonpayable",
      "type": "function"
    },
    {
      "inputs": [
        {
          "internalType": "bytes4",
          "name": "interfaceId",
          "type": "bytes4"
        }
      ],
      "name": "supportsInterface",
      "outputs": [
        {
          "internalType": "bool",
          "name": "",
          "type": "bool"
        }
      ],
      "stateMutability": "view",
      "type": "function"
    },
    {
      "inputs": [],
      "name": "symbol",
      "outputs": [
        {
          "internalType": "string",
          "name": "",
          "type": "string"
        }
      ],
      "stateMutability": "view",
      "type": "function"
    },
    {
      "inputs": [],
      "name": "tld",
      "outputs": [
        {
          "internalType": "string",
          "name": "",
          "type": "string"
        }
      ],
      "stateMutability": "view",
      "type": "function"
    },
    {
      "inputs": [
        {
          "internalType": "uint256",
          "name": "tokenId",
          "type": "uint256"
        }
      ],
      "name": "tokenURI",
      "outputs": [
        {
          "internalType": "string",
          "name": "",
          "type": "string"
        }
      ],
      "stateMutability": "view",
      "type": "function"
    },
    {
      "inputs": [
        {
          "internalType": "address",
          "name": "from",
          "type": "address"
        },
        {
          "internalType": "address",
          "name": "to",
          "type": "address"
        },
        {
          "internalType": "uint256",
          "name": "tokenId",
          "type": "uint256"
        }
      ],
      "name": "transferFrom",
      "outputs": [],
      "stateMutability": "nonpayable",
      "type": "function"
    },
    {
      "inputs": [
        {
          "internalType": "string",
          "name": "name",
          "type": "string"
        }
      ],
      "name": "valid",
      "outputs": [
        {
          "internalType": "bool",
          "name": "",
          "type": "bool"
        }
      ],
      "stateMutability": "pure",
      "type": "function"
    },
    {
      "inputs": [],
      "name": "withdraw",
      "outputs": [],
      "stateMutability": "nonpayable",
      "type": "function"
    }
  ],
  "bytecode": "0x6080604052604051806108a0016040528061086b81526020016200536361086b9139600a908051906020019062000038929190620002c8565b506040518060400160405280600d81526020017f3c2f746578743e3c2f7376673e00000000000000000000000000000000000000815250600b908051906020019062000086929190620002c8565b5060405162005bce38038062005bce8339818101604052810190620000ac919062000515565b6040518060400160405280601281526020017f4e696e6a61204e616d65205365727669636500000000000000000000000000008152506040518060400160405280600381526020017f4e4e530000000000000000000000000000000000000000000000000000000000815250816000908051906020019062000130929190620002c8565b50806001908051906020019062000149929190620002c8565b50505033600860006101000a81548173ffffffffffffffffffffffffffffffffffffffff021916908373ffffffffffffffffffffffffffffffffffffffff1602179055508060099080519060200190620001a5929190620002c8565b50620001f26040518060400160405280601881526020017f2573206e616d652073657276696365206465706c6f796564000000000000000081525082620001f960201b62001b5a1760201c565b5062000663565b6200029b828260405160240162000212929190620005c3565b6040516020818303038152906040527f4b5c4277000000000000000000000000000000000000000000000000000000007bffffffffffffffffffffffffffffffffffffffffffffffffffffffff19166020820180517bffffffffffffffffffffffffffffffffffffffffffffffffffffffff83818316178352505050506200029f60201b60201c565b5050565b60008151905060006a636f6e736f6c652e6c6f679050602083016000808483855afa5050505050565b828054620002d6906200062d565b90600052602060002090601f016020900481019282620002fa576000855562000346565b82601f106200031557805160ff191683800117855562000346565b8280016001018555821562000346579182015b828111156200034557825182559160200191906001019062000328565b5b50905062000355919062000359565b5090565b5b80821115620003745760008160009055506001016200035a565b5090565b6000604051905090565b600080fd5b600080fd5b600080fd5b600080fd5b6000601f19601f8301169050919050565b7f4e487b7100000000000000000000000000000000000000000000000000000000600052604160045260246000fd5b620003e18262000396565b810181811067ffffffffffffffff82111715620004035762000402620003a7565b5b80604052505050565b60006200041862000378565b9050620004268282620003d6565b919050565b600067ffffffffffffffff821115620004495762000448620003a7565b5b620004548262000396565b9050602081019050919050565b60005b838110156200048157808201518184015260208101905062000464565b8381111562000491576000848401525b50505050565b6000620004ae620004a8846200042b565b6200040c565b905082815260208101848484011115620004cd57620004cc62000391565b5b620004da84828562000461565b509392505050565b600082601f830112620004fa57620004f96200038c565b5b81516200050c84826020860162000497565b91505092915050565b6000602082840312156200052e576200052d62000382565b5b600082015167ffffffffffffffff8111156200054f576200054e62000387565b5b6200055d84828501620004e2565b91505092915050565b600081519050919050565b600082825260208201905092915050565b60006200058f8262000566565b6200059b818562000571565b9350620005ad81856020860162000461565b620005b88162000396565b840191505092915050565b60006040820190508181036000830152620005df818562000582565b90508181036020830152620005f5818462000582565b90509392505050565b7f4e487b7100000000000000000000000000000000000000000000000000000000600052602260045260246000fd5b600060028204905060018216806200064657607f821691505b602082108114156200065d576200065c620005fe565b5b50919050565b614cf080620006736000396000f3fe60806040526004361061019c5760003560e01c806370a08231116100ec578063bf40fac11161008a578063e985e9c511610064578063e985e9c514610624578063f2c298be14610661578063fb825e5f1461067d578063fe2c6198146106a85761019c565b8063bf40fac114610581578063c1880a98146105be578063c87b56dd146105e75761019c565b806395d89b41116100c657806395d89b41146104c75780639791c097146104f2578063a22cb4651461052f578063b88d4fde146105585761019c565b806370a08231146104345780638da5cb5b146104715780638f32d59b1461049c5761019c565b8063264492351161015957806342842e0e1161013357806342842e0e146103545780634622ab031461037d578063541e771d146103ba5780636352211e146103f75761019c565b806326449235146102d55780632d551432146103125780633ccfd60b1461033d5761019c565b806301ffc9a7146101a157806306fdde03146101de578063081812fc14610209578063095ea7b31461024657806311dd88451461026f57806323b872dd146102ac575b600080fd5b3480156101ad57600080fd5b506101c860048036038101906101c391906132a3565b6106e5565b6040516101d591906132eb565b60405180910390f35b3480156101ea57600080fd5b506101f36107c7565b604051610200919061339f565b60405180910390f35b34801561021557600080fd5b50610230600480360381019061022b91906133f7565b610859565b60405161023d9190613465565b60405180910390f35b34801561025257600080fd5b5061026d600480360381019061026891906134ac565b61089f565b005b34801561027b57600080fd5b5061029660048036038101906102919190613551565b6109b7565b6040516102a3919061339f565b60405180910390f35b3480156102b857600080fd5b506102d360048036038101906102ce919061359e565b610a6a565b005b3480156102e157600080fd5b506102fc60048036038101906102f79190613721565b610aca565b6040516103099190613465565b60405180910390f35b34801561031e57600080fd5b50610327610b13565b604051610334919061339f565b60405180910390f35b34801561034957600080fd5b50610352610ba1565b005b34801561036057600080fd5b5061037b6004803603810190610376919061359e565b610c67565b005b34801561038957600080fd5b506103a4600480360381019061039f91906133f7565b610c87565b6040516103b1919061339f565b60405180910390f35b3480156103c657600080fd5b506103e160048036038101906103dc9190613721565b610d27565b6040516103ee919061339f565b60405180910390f35b34801561040357600080fd5b5061041e600480360381019061041991906133f7565b610ddd565b60405161042b9190613465565b60405180910390f35b34801561044057600080fd5b5061045b6004803603810190610456919061376a565b610e64565b60405161046891906137a6565b60405180910390f35b34801561047d57600080fd5b50610486610f1c565b60405161049391906137e2565b60405180910390f35b3480156104a857600080fd5b506104b1610f42565b6040516104be91906132eb565b60405180910390f35b3480156104d357600080fd5b506104dc610f9a565b6040516104e9919061339f565b60405180910390f35b3480156104fe57600080fd5b5061051960048036038101906105149190613551565b61102c565b60405161052691906132eb565b60405180910390f35b34801561053b57600080fd5b5061055660048036038101906105519190613829565b6110e0565b005b34801561056457600080fd5b5061057f600480360381019061057a919061390a565b6110f6565b005b34801561058d57600080fd5b506105a860048036038101906105a39190613551565b611158565b6040516105b59190613465565b60405180910390f35b3480156105ca57600080fd5b506105e560048036038101906105e0919061398d565b6111a3565b005b3480156105f357600080fd5b5061060e600480360381019061060991906133f7565b61127e565b60405161061b919061339f565b60405180910390f35b34801561063057600080fd5b5061064b60048036038101906106469190613a0e565b611391565b60405161065891906132eb565b60405180910390f35b61067b60048036038101906106769190613551565b611425565b005b34801561068957600080fd5b506106926118a3565b60405161069f9190613b5a565b60405180910390f35b3480156106b457600080fd5b506106cf60048036038101906106ca9190613551565b611a81565b6040516106dc91906137a6565b60405180910390f35b60007f80ac58cd000000000000000000000000000000000000000000000000000000007bffffffffffffffffffffffffffffffffffffffffffffffffffffffff1916827bffffffffffffffffffffffffffffffffffffffffffffffffffffffff191614806107b057507f5b5e139f000000000000000000000000000000000000000000000000000000007bffffffffffffffffffffffffffffffffffffffffffffffffffffffff1916827bffffffffffffffffffffffffffffffffffffffffffffffffffffffff1916145b806107c057506107bf82611bf6565b5b9050919050565b6060600080546107d690613bab565b80601f016020809104026020016040519081016040528092919081815260200182805461080290613bab565b801561084f5780601f106108245761010080835404028352916020019161084f565b820191906000526020600020905b81548152906001019060200180831161083257829003601f168201915b5050505050905090565b600061086482611c60565b6004600083815260200190815260200160002060009054906101000a900473ffffffffffffffffffffffffffffffffffffffff169050919050565b60006108aa82610ddd565b90508073ffffffffffffffffffffffffffffffffffffffff168373ffffffffffffffffffffffffffffffffffffffff16141561091b576040517f08c379a000000000000000000000000000000000000000000000000000000000815260040161091290613c4f565b60405180910390fd5b8073ffffffffffffffffffffffffffffffffffffffff1661093a611cab565b73ffffffffffffffffffffffffffffffffffffffff161480610969575061096881610963611cab565b611391565b5b6109a8576040517f08c379a000000000000000000000000000000000000000000000000000000000815260040161099f90613ce1565b60405180910390fd5b6109b28383611cb3565b505050565b6060600d83836040516109cb929190613d31565b908152602001604051809103902080546109e490613bab565b80601f0160208091040260200160405190810160405280929190818152602001828054610a1090613bab565b8015610a5d5780601f10610a3257610100808354040283529160200191610a5d565b820191906000526020600020905b815481529060010190602001808311610a4057829003601f168201915b5050505050905092915050565b610a7b610a75611cab565b82611d6c565b610aba576040517f08c379a0000000000000000000000000000000000000000000000000000000008152600401610ab190613dbc565b60405180910390fd5b610ac5838383611e01565b505050565b600c818051602081018201805184825260208301602085012081835280955050505050506000915054906101000a900473ffffffffffffffffffffffffffffffffffffffff1681565b60098054610b2090613bab565b80601f0160208091040260200160405190810160405280929190818152602001828054610b4c90613bab565b8015610b995780601f10610b6e57610100808354040283529160200191610b99565b820191906000526020600020905b815481529060010190602001808311610b7c57829003601f168201915b505050505081565b610ba9610f42565b610bb257600080fd5b600047905060003373ffffffffffffffffffffffffffffffffffffffff1682604051610bdd90613e0d565b60006040518083038185875af1925050503d8060008114610c1a576040519150601f19603f3d011682016040523d82523d6000602084013e610c1f565b606091505b5050905080610c63576040517f08c379a0000000000000000000000000000000000000000000000000000000008152600401610c5a90613e6e565b60405180910390fd5b5050565b610c82838383604051806020016040528060008152506110f6565b505050565b600e6020528060005260406000206000915090508054610ca690613bab565b80601f0160208091040260200160405190810160405280929190818152602001828054610cd290613bab565b8015610d1f5780601f10610cf457610100808354040283529160200191610d1f565b820191906000526020600020905b815481529060010190602001808311610d0257829003601f168201915b505050505081565b600d818051602081018201805184825260208301602085012081835280955050505050506000915090508054610d5c90613bab565b80601f0160208091040260200160405190810160405280929190818152602001828054610d8890613bab565b8015610dd55780601f10610daa57610100808354040283529160200191610dd5565b820191906000526020600020905b815481529060010190602001808311610db857829003601f168201915b505050505081565b600080610de9836120fb565b9050600073ffffffffffffffffffffffffffffffffffffffff168173ffffffffffffffffffffffffffffffffffffffff161415610e5b576040517f08c379a0000000000000000000000000000000000000000000000000000000008152600401610e5290613eda565b60405180910390fd5b80915050919050565b60008073ffffffffffffffffffffffffffffffffffffffff168273ffffffffffffffffffffffffffffffffffffffff161415610ed5576040517f08c379a0000000000000000000000000000000000000000000000000000000008152600401610ecc90613f6c565b60405180910390fd5b600360008373ffffffffffffffffffffffffffffffffffffffff1673ffffffffffffffffffffffffffffffffffffffff168152602001908152602001600020549050919050565b600860009054906101000a900473ffffffffffffffffffffffffffffffffffffffff1681565b6000600860009054906101000a900473ffffffffffffffffffffffffffffffffffffffff1673ffffffffffffffffffffffffffffffffffffffff163373ffffffffffffffffffffffffffffffffffffffff1614905090565b606060018054610fa990613bab565b80601f0160208091040260200160405190810160405280929190818152602001828054610fd590613bab565b80156110225780601f10610ff757610100808354040283529160200191611022565b820191906000526020600020905b81548152906001019060200180831161100557829003601f168201915b5050505050905090565b6000600361107d84848080601f016020809104026020016040519081016040528093929190818152602001838380828437600081840152601f19601f82011690508083019250505050505050612138565b101580156110d85750600a6110d584848080601f016020809104026020016040519081016040528093929190818152602001838380828437600081840152601f19601f82011690508083019250505050505050612138565b11155b905092915050565b6110f26110eb611cab565b83836122ed565b5050565b611107611101611cab565b83611d6c565b611146576040517f08c379a000000000000000000000000000000000000000000000000000000000815260040161113d90613dbc565b60405180910390fd5b6111528484848461245a565b50505050565b6000600c838360405161116c929190613d31565b908152602001604051809103902060009054906101000a900473ffffffffffffffffffffffffffffffffffffffff16905092915050565b600c84846040516111b5929190613d31565b908152602001604051809103902060009054906101000a900473ffffffffffffffffffffffffffffffffffffffff1673ffffffffffffffffffffffffffffffffffffffff163373ffffffffffffffffffffffffffffffffffffffff1614611248576040517f82b4290000000000000000000000000000000000000000000000000000000000815260040160405180910390fd5b8181600d868660405161125c929190613d31565b9081526020016040518091039020919061127792919061310e565b5050505050565b606061128982611c60565b60006006600084815260200190815260200160002080546112a990613bab565b80601f01602080910402602001604051908101604052809291908181526020018280546112d590613bab565b80156113225780601f106112f757610100808354040283529160200191611322565b820191906000526020600020905b81548152906001019060200180831161130557829003601f168201915b5050505050905060006113336124b6565b905060008151141561134957819250505061138c565b60008251111561137e578082604051602001611366929190613fbd565b6040516020818303038152906040529250505061138c565b611387846124cd565b925050505b919050565b6000600560008473ffffffffffffffffffffffffffffffffffffffff1673ffffffffffffffffffffffffffffffffffffffff16815260200190815260200160002060008373ffffffffffffffffffffffffffffffffffffffff1673ffffffffffffffffffffffffffffffffffffffff16815260200190815260200160002060009054906101000a900460ff16905092915050565b600073ffffffffffffffffffffffffffffffffffffffff16600c838360405161144f929190613d31565b908152602001604051809103902060009054906101000a900473ffffffffffffffffffffffffffffffffffffffff1673ffffffffffffffffffffffffffffffffffffffff16146114cb576040517f3a81d6fc00000000000000000000000000000000000000000000000000000000815260040160405180910390fd5b6114d5828261102c565b6115185781816040517f7f19f48d00000000000000000000000000000000000000000000000000000000815260040161150f92919061400e565b60405180910390fd5b60006115248383611a81565b905080341015611569576040517f08c379a00000000000000000000000000000000000000000000000000000000081526004016115609061407e565b60405180910390fd5b6000838360096040516020016115819392919061417e565b60405160208183030381529060405290506000600a82600b6040516020016115ab939291906141af565b604051602081830303815290604052905060006115c86007612535565b9050600061161987878080601f016020809104026020016040519081016040528093929190818152602001838380828437600081840152601f19601f82011690508083019250505050505050612138565b9050600061162682612543565b905061171a604051806060016040528060318152602001614c1a6031913989898080601f016020809104026020016040519081016040528093929190818152602001838380828437600081840152601f19601f820116905080830192505050505050506009805461169690613bab565b80601f01602080910402602001604051908101604052809291908181526020018280546116c290613bab565b801561170f5780601f106116e45761010080835404028352916020019161170f565b820191906000526020600020905b8154815290600101906020018083116116f257829003601f168201915b50505050508661261b565b600061175086611729876126bd565b8460405160200161173c9392919061435c565b6040516020818303038152906040526126bd565b90506000816040516020016117659190614405565b6040516020818303038152906040529050611797604051806060016040528060308152602001614c4b60309139612821565b6117d66040518060400160405280600e81526020017f46696e616c20746f6b656e55524900000000000000000000000000000000000081525082611b5a565b6117f7604051806060016040528060308152602001614bea60309139612821565b61180133866128ba565b61180b85826128d8565b33600c8b8b60405161181e929190613d31565b908152602001604051809103902060006101000a81548173ffffffffffffffffffffffffffffffffffffffff021916908373ffffffffffffffffffffffffffffffffffffffff1602179055508989600e6000888152602001908152602001600020919061188c92919061310e565b50611897600761294c565b50505050505050505050565b60606118e36040518060400160405280601f81526020017f47657474696e6720616c6c206e616d65732066726f6d20636f6e747261637400815250612821565b60006118ef6007612535565b67ffffffffffffffff811115611908576119076135f6565b5b60405190808252806020026020018201604052801561193b57816020015b60608152602001906001900390816119265790505b50905060005b61194b6007612535565b811015611a7957600e6000828152602001908152602001600020805461197090613bab565b80601f016020809104026020016040519081016040528092919081815260200182805461199c90613bab565b80156119e95780601f106119be576101008083540402835291602001916119e9565b820191906000526020600020905b8154815290600101906020018083116119cc57829003601f168201915b5050505050828281518110611a0157611a00614427565b5b6020026020010181905250611a666040518060400160405280601781526020017f4e616d6520666f7220746f6b656e20256420697320257300000000000000000081525082848481518110611a5957611a58614427565b5b6020026020010151612962565b8080611a7190614485565b915050611941565b508091505090565b600080611ad184848080601f016020809104026020016040519081016040528093929190818152602001838380828437600081840152601f19601f82011690508083019250505050505050612138565b905060008111611b16576040517f08c379a0000000000000000000000000000000000000000000000000000000008152600401611b0d90614540565b60405180910390fd5b6003811415611b2f5766b1a2bc2ec50000915050611b54565b6004811415611b4857666a94d74f430000915050611b54565b662386f26fc100009150505b92915050565b611bf28282604051602401611b70929190614560565b6040516020818303038152906040527f4b5c4277000000000000000000000000000000000000000000000000000000007bffffffffffffffffffffffffffffffffffffffffffffffffffffffff19166020820180517bffffffffffffffffffffffffffffffffffffffffffffffffffffffff8381831617835250505050612a01565b5050565b60007f01ffc9a7000000000000000000000000000000000000000000000000000000007bffffffffffffffffffffffffffffffffffffffffffffffffffffffff1916827bffffffffffffffffffffffffffffffffffffffffffffffffffffffff1916149050919050565b611c6981612a2a565b611ca8576040517f08c379a0000000000000000000000000000000000000000000000000000000008152600401611c9f90613eda565b60405180910390fd5b50565b600033905090565b816004600083815260200190815260200160002060006101000a81548173ffffffffffffffffffffffffffffffffffffffff021916908373ffffffffffffffffffffffffffffffffffffffff160217905550808273ffffffffffffffffffffffffffffffffffffffff16611d2683610ddd565b73ffffffffffffffffffffffffffffffffffffffff167f8c5be1e5ebec7d5bd14f71427d1e84f3dd0314c0f7b2291e5b200ac8c7c3b92560405160405180910390a45050565b600080611d7883610ddd565b90508073ffffffffffffffffffffffffffffffffffffffff168473ffffffffffffffffffffffffffffffffffffffff161480611dba5750611db98185611391565b5b80611df857508373ffffffffffffffffffffffffffffffffffffffff16611de084610859565b73ffffffffffffffffffffffffffffffffffffffff16145b91505092915050565b8273ffffffffffffffffffffffffffffffffffffffff16611e2182610ddd565b73ffffffffffffffffffffffffffffffffffffffff1614611e77576040517f08c379a0000000000000000000000000000000000000000000000000000000008152600401611e6e90614609565b60405180910390fd5b600073ffffffffffffffffffffffffffffffffffffffff168273ffffffffffffffffffffffffffffffffffffffff161415611ee7576040517f08c379a0000000000000000000000000000000000000000000000000000000008152600401611ede9061469b565b60405180910390fd5b611ef48383836001612a6b565b8273ffffffffffffffffffffffffffffffffffffffff16611f1482610ddd565b73ffffffffffffffffffffffffffffffffffffffff1614611f6a576040517f08c379a0000000000000000000000000000000000000000000000000000000008152600401611f6190614609565b60405180910390fd5b6004600082815260200190815260200160002060006101000a81549073ffffffffffffffffffffffffffffffffffffffff02191690556001600360008573ffffffffffffffffffffffffffffffffffffffff1673ffffffffffffffffffffffffffffffffffffffff168152602001908152602001600020600082825403925050819055506001600360008473ffffffffffffffffffffffffffffffffffffffff1673ffffffffffffffffffffffffffffffffffffffff16815260200190815260200160002060008282540192505081905550816002600083815260200190815260200160002060006101000a81548173ffffffffffffffffffffffffffffffffffffffff021916908373ffffffffffffffffffffffffffffffffffffffff160217905550808273ffffffffffffffffffffffffffffffffffffffff168473ffffffffffffffffffffffffffffffffffffffff167fddf252ad1be2c89b69c2b068fc378daa952ba7f163c4a11628f55a4df523b3ef60405160405180910390a46120f68383836001612b91565b505050565b60006002600083815260200190815260200160002060009054906101000a900473ffffffffffffffffffffffffffffffffffffffff169050919050565b60008060008084519050600092505b808210156122e257600085838151811061216457612163614427565b5b602001015160f81c60f81b9050608060f81b817effffffffffffffffffffffffffffffffffffffffffffffffffffffffffffff191610156121b3576001836121ac91906146bb565b92506122ce565b60e060f81b817effffffffffffffffffffffffffffffffffffffffffffffffffffffffffffff191610156121f5576002836121ee91906146bb565b92506122cd565b60f060f81b817effffffffffffffffffffffffffffffffffffffffffffffffffffffffffffff191610156122375760038361223091906146bb565b92506122cc565b60f8801b817effffffffffffffffffffffffffffffffffffffffffffffffffffffffffffff191610156122785760048361227191906146bb565b92506122cb565b60fc60f81b817effffffffffffffffffffffffffffffffffffffffffffffffffffffffffffff191610156122ba576005836122b391906146bb565b92506122ca565b6006836122c791906146bb565b92505b5b5b5b5b5082806122da90614485565b935050612147565b829350505050919050565b8173ffffffffffffffffffffffffffffffffffffffff168373ffffffffffffffffffffffffffffffffffffffff16141561235c576040517f08c379a00000000000000000000000000000000000000000000000000000000081526004016123539061475d565b60405180910390fd5b80600560008573ffffffffffffffffffffffffffffffffffffffff1673ffffffffffffffffffffffffffffffffffffffff16815260200190815260200160002060008473ffffffffffffffffffffffffffffffffffffffff1673ffffffffffffffffffffffffffffffffffffffff16815260200190815260200160002060006101000a81548160ff0219169083151502179055508173ffffffffffffffffffffffffffffffffffffffff168373ffffffffffffffffffffffffffffffffffffffff167f17307eab39ab6107e8899845ad3d59bd9653f200f220920489ca2b5937696c318360405161244d91906132eb565b60405180910390a3505050565b612465848484611e01565b61247184848484612b97565b6124b0576040517f08c379a00000000000000000000000000000000000000000000000000000000081526004016124a7906147ef565b60405180910390fd5b50505050565b606060405180602001604052806000815250905090565b60606124d882611c60565b60006124e26124b6565b90506000815111612502576040518060200160405280600081525061252d565b8061250c84612543565b60405160200161251d929190613fbd565b6040516020818303038152906040525b915050919050565b600081600001549050919050565b60606000600161255284612d1f565b01905060008167ffffffffffffffff811115612571576125706135f6565b5b6040519080825280601f01601f1916602001820160405280156125a35781602001600182028036833780820191505090505b509050600082602001820190505b600115612610578080600190039150507f3031323334353637383961626364656600000000000000000000000000000000600a86061a8153600a85816125fa576125f961480f565b5b049450600085141561260b57612610565b6125b1565b819350505050919050565b6126b784848484604051602401612635949392919061483e565b6040516020818303038152906040527f8eafb02b000000000000000000000000000000000000000000000000000000007bffffffffffffffffffffffffffffffffffffffffffffffffffffffff19166020820180517bffffffffffffffffffffffffffffffffffffffffffffffffffffffff8381831617835250505050612a01565b50505050565b60606000825114156126e05760405180602001604052806000815250905061281c565b6000604051806060016040528060408152602001614c7b604091399050600060036002855161270f91906146bb565b6127199190614898565b600461272591906148c9565b67ffffffffffffffff81111561273e5761273d6135f6565b5b6040519080825280601f01601f1916602001820160405280156127705781602001600182028036833780820191505090505b509050600182016020820185865187015b808210156127dc576003820191508151603f8160121c168501518453600184019350603f81600c1c168501518453600184019350603f8160061c168501518453600184019350603f8116850151845360018401935050612781565b50506003865106600181146127f8576002811461280b57612813565b603d6001830353603d6002830353612813565b603d60018303535b50505080925050505b919050565b6128b781604051602401612835919061339f565b6040516020818303038152906040527f41304fac000000000000000000000000000000000000000000000000000000007bffffffffffffffffffffffffffffffffffffffffffffffffffffffff19166020820180517bffffffffffffffffffffffffffffffffffffffffffffffffffffffff8381831617835250505050612a01565b50565b6128d4828260405180602001604052806000815250612e72565b5050565b6128e182612a2a565b612920576040517f08c379a000000000000000000000000000000000000000000000000000000000815260040161291790614995565b60405180910390fd5b80600660008481526020019081526020016000209080519060200190612947929190613194565b505050565b6001816000016000828254019250508190555050565b6129fc83838360405160240161297a939291906149b5565b6040516020818303038152906040527f5970e089000000000000000000000000000000000000000000000000000000007bffffffffffffffffffffffffffffffffffffffffffffffffffffffff19166020820180517bffffffffffffffffffffffffffffffffffffffffffffffffffffffff8381831617835250505050612a01565b505050565b60008151905060006a636f6e736f6c652e6c6f679050602083016000808483855afa5050505050565b60008073ffffffffffffffffffffffffffffffffffffffff16612a4c836120fb565b73ffffffffffffffffffffffffffffffffffffffff1614159050919050565b6001811115612b8b57600073ffffffffffffffffffffffffffffffffffffffff168473ffffffffffffffffffffffffffffffffffffffff1614612aff5780600360008673ffffffffffffffffffffffffffffffffffffffff1673ffffffffffffffffffffffffffffffffffffffff1681526020019081526020016000206000828254612af791906149fa565b925050819055505b600073ffffffffffffffffffffffffffffffffffffffff168373ffffffffffffffffffffffffffffffffffffffff1614612b8a5780600360008573ffffffffffffffffffffffffffffffffffffffff1673ffffffffffffffffffffffffffffffffffffffff1681526020019081526020016000206000828254612b8291906146bb565b925050819055505b5b50505050565b50505050565b6000612bb88473ffffffffffffffffffffffffffffffffffffffff16612ecd565b15612d12578373ffffffffffffffffffffffffffffffffffffffff1663150b7a02612be1611cab565b8786866040518563ffffffff1660e01b8152600401612c039493929190614a83565b6020604051808303816000875af1925050508015612c3f57506040513d601f19601f82011682018060405250810190612c3c9190614ae4565b60015b612cc2573d8060008114612c6f576040519150601f19603f3d011682016040523d82523d6000602084013e612c74565b606091505b50600081511415612cba576040517f08c379a0000000000000000000000000000000000000000000000000000000008152600401612cb1906147ef565b60405180910390fd5b805181602001fd5b63150b7a0260e01b7bffffffffffffffffffffffffffffffffffffffffffffffffffffffff1916817bffffffffffffffffffffffffffffffffffffffffffffffffffffffff191614915050612d17565b600190505b949350505050565b600080600090507a184f03e93ff9f4daa797ed6e38ed64bf6a1f0100000000000000008310612d7d577a184f03e93ff9f4daa797ed6e38ed64bf6a1f0100000000000000008381612d7357612d7261480f565b5b0492506040810190505b6d04ee2d6d415b85acef81000000008310612dba576d04ee2d6d415b85acef81000000008381612db057612daf61480f565b5b0492506020810190505b662386f26fc100008310612de957662386f26fc100008381612ddf57612dde61480f565b5b0492506010810190505b6305f5e1008310612e12576305f5e1008381612e0857612e0761480f565b5b0492506008810190505b6127108310612e37576127108381612e2d57612e2c61480f565b5b0492506004810190505b60648310612e5a5760648381612e5057612e4f61480f565b5b0492506002810190505b600a8310612e69576001810190505b80915050919050565b612e7c8383612ef0565b612e896000848484612b97565b612ec8576040517f08c379a0000000000000000000000000000000000000000000000000000000008152600401612ebf906147ef565b60405180910390fd5b505050565b6000808273ffffffffffffffffffffffffffffffffffffffff163b119050919050565b600073ffffffffffffffffffffffffffffffffffffffff168273ffffffffffffffffffffffffffffffffffffffff161415612f60576040517f08c379a0000000000000000000000000000000000000000000000000000000008152600401612f5790614b5d565b60405180910390fd5b612f6981612a2a565b15612fa9576040517f08c379a0000000000000000000000000000000000000000000000000000000008152600401612fa090614bc9565b60405180910390fd5b612fb7600083836001612a6b565b612fc081612a2a565b15613000576040517f08c379a0000000000000000000000000000000000000000000000000000000008152600401612ff790614bc9565b60405180910390fd5b6001600360008473ffffffffffffffffffffffffffffffffffffffff1673ffffffffffffffffffffffffffffffffffffffff16815260200190815260200160002060008282540192505081905550816002600083815260200190815260200160002060006101000a81548173ffffffffffffffffffffffffffffffffffffffff021916908373ffffffffffffffffffffffffffffffffffffffff160217905550808273ffffffffffffffffffffffffffffffffffffffff16600073ffffffffffffffffffffffffffffffffffffffff167fddf252ad1be2c89b69c2b068fc378daa952ba7f163c4a11628f55a4df523b3ef60405160405180910390a461310a600083836001612b91565b5050565b82805461311a90613bab565b90600052602060002090601f01602090048101928261313c5760008555613183565b82601f1061315557803560ff1916838001178555613183565b82800160010185558215613183579182015b82811115613182578235825591602001919060010190613167565b5b509050613190919061321a565b5090565b8280546131a090613bab565b90600052602060002090601f0160209004810192826131c25760008555613209565b82601f106131db57805160ff1916838001178555613209565b82800160010185558215613209579182015b828111156132085782518255916020019190600101906131ed565b5b509050613216919061321a565b5090565b5b8082111561323357600081600090555060010161321b565b5090565b6000604051905090565b600080fd5b600080fd5b60007fffffffff0000000000000000000000000000000000000000000000000000000082169050919050565b6132808161324b565b811461328b57600080fd5b50565b60008135905061329d81613277565b92915050565b6000602082840312156132b9576132b8613241565b5b60006132c78482850161328e565b91505092915050565b60008115159050919050565b6132e5816132d0565b82525050565b600060208201905061330060008301846132dc565b92915050565b600081519050919050565b600082825260208201905092915050565b60005b83811015613340578082015181840152602081019050613325565b8381111561334f576000848401525b50505050565b6000601f19601f8301169050919050565b600061337182613306565b61337b8185613311565b935061338b818560208601613322565b61339481613355565b840191505092915050565b600060208201905081810360008301526133b98184613366565b905092915050565b6000819050919050565b6133d4816133c1565b81146133df57600080fd5b50565b6000813590506133f1816133cb565b92915050565b60006020828403121561340d5761340c613241565b5b600061341b848285016133e2565b91505092915050565b600073ffffffffffffffffffffffffffffffffffffffff82169050919050565b600061344f82613424565b9050919050565b61345f81613444565b82525050565b600060208201905061347a6000830184613456565b92915050565b61348981613444565b811461349457600080fd5b50565b6000813590506134a681613480565b92915050565b600080604083850312156134c3576134c2613241565b5b60006134d185828601613497565b92505060206134e2858286016133e2565b9150509250929050565b600080fd5b600080fd5b600080fd5b60008083601f840112613511576135106134ec565b5b8235905067ffffffffffffffff81111561352e5761352d6134f1565b5b60208301915083600182028301111561354a576135496134f6565b5b9250929050565b6000806020838503121561356857613567613241565b5b600083013567ffffffffffffffff81111561358657613585613246565b5b613592858286016134fb565b92509250509250929050565b6000806000606084860312156135b7576135b6613241565b5b60006135c586828701613497565b93505060206135d686828701613497565b92505060406135e7868287016133e2565b9150509250925092565b600080fd5b7f4e487b7100000000000000000000000000000000000000000000000000000000600052604160045260246000fd5b61362e82613355565b810181811067ffffffffffffffff8211171561364d5761364c6135f6565b5b80604052505050565b6000613660613237565b905061366c8282613625565b919050565b600067ffffffffffffffff82111561368c5761368b6135f6565b5b61369582613355565b9050602081019050919050565b82818337600083830152505050565b60006136c46136bf84613671565b613656565b9050828152602081018484840111156136e0576136df6135f1565b5b6136eb8482856136a2565b509392505050565b600082601f830112613708576137076134ec565b5b81356137188482602086016136b1565b91505092915050565b60006020828403121561373757613736613241565b5b600082013567ffffffffffffffff81111561375557613754613246565b5b613761848285016136f3565b91505092915050565b6000602082840312156137805761377f613241565b5b600061378e84828501613497565b91505092915050565b6137a0816133c1565b82525050565b60006020820190506137bb6000830184613797565b92915050565b60006137cc82613424565b9050919050565b6137dc816137c1565b82525050565b60006020820190506137f760008301846137d3565b92915050565b613806816132d0565b811461381157600080fd5b50565b600081359050613823816137fd565b92915050565b600080604083850312156138405761383f613241565b5b600061384e85828601613497565b925050602061385f85828601613814565b9150509250929050565b600067ffffffffffffffff821115613884576138836135f6565b5b61388d82613355565b9050602081019050919050565b60006138ad6138a884613869565b613656565b9050828152602081018484840111156138c9576138c86135f1565b5b6138d48482856136a2565b509392505050565b600082601f8301126138f1576138f06134ec565b5b813561390184826020860161389a565b91505092915050565b6000806000806080858703121561392457613923613241565b5b600061393287828801613497565b945050602061394387828801613497565b9350506040613954878288016133e2565b925050606085013567ffffffffffffffff81111561397557613974613246565b5b613981878288016138dc565b91505092959194509250565b600080600080604085870312156139a7576139a6613241565b5b600085013567ffffffffffffffff8111156139c5576139c4613246565b5b6139d1878288016134fb565b9450945050602085013567ffffffffffffffff8111156139f4576139f3613246565b5b613a00878288016134fb565b925092505092959194509250565b60008060408385031215613a2557613a24613241565b5b6000613a3385828601613497565b9250506020613a4485828601613497565b9150509250929050565b600081519050919050565b600082825260208201905092915050565b6000819050602082019050919050565b600082825260208201905092915050565b6000613a9682613306565b613aa08185613a7a565b9350613ab0818560208601613322565b613ab981613355565b840191505092915050565b6000613ad08383613a8b565b905092915050565b6000602082019050919050565b6000613af082613a4e565b613afa8185613a59565b935083602082028501613b0c85613a6a565b8060005b85811015613b485784840389528151613b298582613ac4565b9450613b3483613ad8565b925060208a01995050600181019050613b10565b50829750879550505050505092915050565b60006020820190508181036000830152613b748184613ae5565b905092915050565b7f4e487b7100000000000000000000000000000000000000000000000000000000600052602260045260246000fd5b60006002820490506001821680613bc357607f821691505b60208210811415613bd757613bd6613b7c565b5b50919050565b7f4552433732313a20617070726f76616c20746f2063757272656e74206f776e6560008201527f7200000000000000000000000000000000000000000000000000000000000000602082015250565b6000613c39602183613311565b9150613c4482613bdd565b604082019050919050565b60006020820190508181036000830152613c6881613c2c565b9050919050565b7f4552433732313a20617070726f76652063616c6c6572206973206e6f7420746f60008201527f6b656e206f776e6572206f7220617070726f76656420666f7220616c6c000000602082015250565b6000613ccb603d83613311565b9150613cd682613c6f565b604082019050919050565b60006020820190508181036000830152613cfa81613cbe565b9050919050565b600081905092915050565b6000613d188385613d01565b9350613d258385846136a2565b82840190509392505050565b6000613d3e828486613d0c565b91508190509392505050565b7f4552433732313a2063616c6c6572206973206e6f7420746f6b656e206f776e6560008201527f72206f7220617070726f76656400000000000000000000000000000000000000602082015250565b6000613da6602d83613311565b9150613db182613d4a565b604082019050919050565b60006020820190508181036000830152613dd581613d99565b9050919050565b600081905092915050565b50565b6000613df7600083613ddc565b9150613e0282613de7565b600082019050919050565b6000613e1882613dea565b9150819050919050565b7f4661696c656420746f2077697468647261770000000000000000000000000000600082015250565b6000613e58601283613311565b9150613e6382613e22565b602082019050919050565b60006020820190508181036000830152613e8781613e4b565b9050919050565b7f4552433732313a20696e76616c696420746f6b656e2049440000000000000000600082015250565b6000613ec4601883613311565b9150613ecf82613e8e565b602082019050919050565b60006020820190508181036000830152613ef381613eb7565b9050919050565b7f4552433732313a2061646472657373207a65726f206973206e6f74206120766160008201527f6c6964206f776e65720000000000000000000000000000000000000000000000602082015250565b6000613f56602983613311565b9150613f6182613efa565b604082019050919050565b60006020820190508181036000830152613f8581613f49565b9050919050565b6000613f9782613306565b613fa18185613d01565b9350613fb1818560208601613322565b80840191505092915050565b6000613fc98285613f8c565b9150613fd58284613f8c565b91508190509392505050565b6000613fed8385613311565b9350613ffa8385846136a2565b61400383613355565b840190509392505050565b60006020820190508181036000830152614029818486613fe1565b90509392505050565b7f496e73756666696369656e742066756e64730000000000000000000000000000600082015250565b6000614068601283613311565b915061407382614032565b602082019050919050565b600060208201905081810360008301526140978161405b565b9050919050565b7f2e00000000000000000000000000000000000000000000000000000000000000600082015250565b60006140d4600183613d01565b91506140df8261409e565b600182019050919050565b60008190508160005260206000209050919050565b6000815461410c81613bab565b6141168186613d01565b94506001821660008114614131576001811461414257614175565b60ff19831686528186019350614175565b61414b856140ea565b60005b8381101561416d5781548189015260018201915060208101905061414e565b838801955050505b50505092915050565b600061418b828587613d0c565b9150614196826140c7565b91506141a282846140ff565b9150819050949350505050565b60006141bb82866140ff565b91506141c78285613f8c565b91506141d382846140ff565b9150819050949350505050565b7f7b226e616d65223a202200000000000000000000000000000000000000000000600082015250565b6000614216600a83613d01565b9150614221826141e0565b600a82019050919050565b7f222c20226465736372697074696f6e223a20224e696e6a61204e616d6520536560008201527f7276696365222c2022696d616765223a2022646174613a696d6167652f73766760208201527f2b786d6c3b6261736536342c0000000000000000000000000000000000000000604082015250565b60006142ae604c83613d01565b91506142b98261422c565b604c82019050919050565b7f222c226c656e677468223a220000000000000000000000000000000000000000600082015250565b60006142fa600c83613d01565b9150614305826142c4565b600c82019050919050565b7f227d000000000000000000000000000000000000000000000000000000000000600082015250565b6000614346600283613d01565b915061435182614310565b600282019050919050565b600061436782614209565b91506143738286613f8c565b915061437e826142a1565b915061438a8285613f8c565b9150614395826142ed565b91506143a18284613f8c565b91506143ac82614339565b9150819050949350505050565b7f646174613a6170706c69636174696f6e2f6a736f6e3b6261736536342c000000600082015250565b60006143ef601d83613d01565b91506143fa826143b9565b601d82019050919050565b6000614410826143e2565b915061441c8284613f8c565b915081905092915050565b7f4e487b7100000000000000000000000000000000000000000000000000000000600052603260045260246000fd5b7f4e487b7100000000000000000000000000000000000000000000000000000000600052601160045260246000fd5b6000614490826133c1565b91507fffffffffffffffffffffffffffffffffffffffffffffffffffffffffffffffff8214156144c3576144c2614456565b5b600182019050919050565b7f4e616d65206d75737420636f6e7461696e2061746c656173742031206368617260008201527f6163746572000000000000000000000000000000000000000000000000000000602082015250565b600061452a602583613311565b9150614535826144ce565b604082019050919050565b600060208201905081810360008301526145598161451d565b9050919050565b6000604082019050818103600083015261457a8185613366565b9050818103602083015261458e8184613366565b90509392505050565b7f4552433732313a207472616e736665722066726f6d20696e636f72726563742060008201527f6f776e6572000000000000000000000000000000000000000000000000000000602082015250565b60006145f3602583613311565b91506145fe82614597565b604082019050919050565b60006020820190508181036000830152614622816145e6565b9050919050565b7f4552433732313a207472616e7366657220746f20746865207a65726f2061646460008201527f7265737300000000000000000000000000000000000000000000000000000000602082015250565b6000614685602483613311565b915061469082614629565b604082019050919050565b600060208201905081810360008301526146b481614678565b9050919050565b60006146c6826133c1565b91506146d1836133c1565b9250827fffffffffffffffffffffffffffffffffffffffffffffffffffffffffffffffff0382111561470657614705614456565b5b828201905092915050565b7f4552433732313a20617070726f766520746f2063616c6c657200000000000000600082015250565b6000614747601983613311565b915061475282614711565b602082019050919050565b600060208201905081810360008301526147768161473a565b9050919050565b7f4552433732313a207472616e7366657220746f206e6f6e20455243373231526560008201527f63656976657220696d706c656d656e7465720000000000000000000000000000602082015250565b60006147d9603283613311565b91506147e48261477d565b604082019050919050565b60006020820190508181036000830152614808816147cc565b9050919050565b7f4e487b7100000000000000000000000000000000000000000000000000000000600052601260045260246000fd5b600060808201905081810360008301526148588187613366565b9050818103602083015261486c8186613366565b905081810360408301526148808185613366565b905061488f6060830184613797565b95945050505050565b60006148a3826133c1565b91506148ae836133c1565b9250826148be576148bd61480f565b5b828204905092915050565b60006148d4826133c1565b91506148df836133c1565b9250817fffffffffffffffffffffffffffffffffffffffffffffffffffffffffffffffff048311821515161561491857614917614456565b5b828202905092915050565b7f45524337323155524953746f726167653a2055524920736574206f66206e6f6e60008201527f6578697374656e7420746f6b656e000000000000000000000000000000000000602082015250565b600061497f602e83613311565b915061498a82614923565b604082019050919050565b600060208201905081810360008301526149ae81614972565b9050919050565b600060608201905081810360008301526149cf8186613366565b90506149de6020830185613797565b81810360408301526149f08184613366565b9050949350505050565b6000614a05826133c1565b9150614a10836133c1565b925082821015614a2357614a22614456565b5b828203905092915050565b600081519050919050565b600082825260208201905092915050565b6000614a5582614a2e565b614a5f8185614a39565b9350614a6f818560208601613322565b614a7881613355565b840191505092915050565b6000608082019050614a986000830187613456565b614aa56020830186613456565b614ab26040830185613797565b8181036060830152614ac48184614a4a565b905095945050505050565b600081519050614ade81613277565b92915050565b600060208284031215614afa57614af9613241565b5b6000614b0884828501614acf565b91505092915050565b7f4552433732313a206d696e7420746f20746865207a65726f2061646472657373600082015250565b6000614b47602083613311565b9150614b5282614b11565b602082019050919050565b60006020820190508181036000830152614b7681614b3a565b9050919050565b7f4552433732313a20746f6b656e20616c7265616479206d696e74656400000000600082015250565b6000614bb3601c83613311565b9150614bbe82614b7d565b602082019050919050565b60006020820190508181036000830152614be281614ba6565b905091905056fe2d2d2d2d2d2d2d2d2d2d2d2d2d2d2d2d2d2d2d2d2d2d2d2d2d2d2d2d2d2d2d2d2d2d2d2d2d2d2d2d2d2d2d2d2d2d2d0a5265676973746572696e672025732e2573206f6e2074686520636f6e7472616374207769746820746f6b656e49442025640a2d2d2d2d2d2d2d2d2d2d2d2d2d2d2d2d2d2d2d2d2d2d2d2d2d2d2d2d2d2d2d2d2d2d2d2d2d2d2d2d2d2d2d2d2d2d2d4142434445464748494a4b4c4d4e4f505152535455565758595a6162636465666768696a6b6c6d6e6f707172737475767778797a303132333435363738392b2fa2646970667358221220bbfce8242e0f62ca9be21122f554c73e7e25496af5ccb457f924de946ebd402f64736f6c634300080a00333c73766720786d6c6e733d22687474703a2f2f7777772e77332e6f72672f323030302f737667222077696474683d2232373022206865696768743d22323730222066696c6c3d226e6f6e65223e3c706174682066696c6c3d2275726c282342292220643d224d302030683237307632373048307a222f3e3c646566733e3c66696c7465722069643d22412220636f6c6f722d696e746572706f6c6174696f6e2d66696c746572733d2273524742222066696c746572556e6974733d227573657253706163654f6e55736522206865696768743d22323730222077696474683d22323730223e3c666544726f70536861646f772064783d2230222064793d22312220737464446576696174696f6e3d22322220666c6f6f642d6f7061636974793d222e323235222077696474683d223230302522206865696768743d2232303025222f3e3c2f66696c7465723e3c2f646566733e3c7061746820643d224d37322e3836332034322e393439632d2e3636382d2e3338372d312e3432362d2e35392d322e3139372d2e3539732d312e3532392e3230342d322e3139372e35396c2d31302e30383120362e3033322d362e383520332e3933342d31302e30383120362e303332632d2e3636382e3338372d312e3432362e35392d322e3139372e3539732d312e3532392d2e3230342d322e3139372d2e35396c2d382e3031332d342e37323161342e353220342e35322030203020312d312e3538392d312e363136632d2e3338342d2e3636352d2e3539342d312e3431382d2e3630382d322e313837762d392e3331632d2e3031332d2e3737352e3138352d312e3533382e3537322d322e32303861342e323520342e323520302030203120312e3632352d312e3539356c372e3838342d342e3539632e3636382d2e33383720312e3432362d2e353920322e3139372d2e353973312e3532392e32303420322e3139372e35396c372e38383420342e353961342e353220342e353220302030203120312e35383920312e363136632e3338342e3636352e35393420312e3431382e36303820322e31383776362e3033326c362e38352d342e303635762d362e303332632e3031332d2e3737352d2e3138352d312e3533382d2e3537322d322e32303861342e323520342e32352030203020302d312e3632352d312e3539354c34312e3435362032342e3539632d2e3636382d2e3338372d312e3432362d2e35392d322e3139372d2e3539732d312e3532392e3230342d322e3139372e35396c2d31342e38363420382e36353561342e323520342e32352030203020302d312e36323520312e353935632d2e3338372e36372d2e35383520312e3433342d2e35373220322e3230387631372e343431632d2e3031332e3737352e31383520312e3533382e35373220322e32303861342e323520342e323520302030203020312e36323520312e3539356c31342e38363420382e363535632e3636382e33383720312e3432362e353920322e3139372e353973312e3532392d2e32303420322e3139372d2e35396c31302e3038312d352e39303120362e38352d342e3036352031302e3038312d352e393031632e3636382d2e33383720312e3432362d2e353920322e3139372d2e353973312e3532392e32303420322e3139372e35396c372e38383420342e353961342e353220342e353220302030203120312e35383920312e363136632e3338342e3636352e35393420312e3431382e36303820322e31383776392e333131632e3031332e3737352d2e31383520312e3533382d2e35373220322e32303861342e323520342e32352030203020312d312e36323520312e3539356c2d372e38383420342e373231632d2e3636382e3338372d312e3432362e35392d322e3139372e3539732d312e3532392d2e3230342d322e3139372d2e35396c2d372e3838342d342e353961342e353220342e35322030203020312d312e3538392d312e363136632d2e3338352d2e3636352d2e3539342d312e3431382d2e3630382d322e313837762d362e3033326c2d362e383520342e30363576362e303332632d2e3031332e3737352e31383520312e3533382e35373220322e32303861342e323520342e323520302030203020312e36323520312e3539356c31342e38363420382e363535632e3636382e33383720312e3432362e353920322e3139372e353973312e3532392d2e32303420322e3139372d2e35396c31342e3836342d382e363535632e3635372d2e33393420312e3230342d2e393520312e3538392d312e363136732e3539342d312e3431382e3630392d322e3138375635352e353338632e3031332d2e3737352d2e3138352d312e3533382d2e3537322d322e32303861342e323520342e32352030203020302d312e3632352d312e3539356c2d31342e3939332d382e3738367a222066696c6c3d2223666666222f3e3c646566733e3c6c696e6561724772616469656e742069643d2242222078313d2230222079313d2230222078323d22323730222079323d2232373022206772616469656e74556e6974733d227573657253706163654f6e557365223e3c73746f702073746f702d636f6c6f723d2223636235656565222f3e3c73746f70206f66667365743d2231222073746f702d636f6c6f723d2223306364376534222073746f702d6f7061636974793d222e3939222f3e3c2f6c696e6561724772616469656e743e3c2f646566733e3c7465787420783d2233322e352220793d223233312220666f6e742d73697a653d223237222066696c6c3d2223666666222066696c7465723d2275726c282341292220666f6e742d66616d696c793d22506c7573204a616b617274612053616e732c44656a6156752053616e732c4e6f746f20436f6c6f7220456d6f6a692c4170706c6520436f6c6f7220456d6f6a692c73616e732d73657269662220666f6e742d7765696768743d22626f6c64223e",
  "linkReferences": {},
  "deployedLinkReferences": {}
}